:100000000C9462000C948A000C948A000C948A0070
:100010000C948A000C948A000C948A000C948A0038
:100020000C948A000C948A000C948A000C948A0028
:100030000C948A000C948A000C948A000C948A0018
:100040000C9422050C948A000C9492050C946C0577
:100050000C948A000C948A000C948A000C948A00F8
:100060000C948A000C948A000000000024002700F1
:100070002A0000000000250028002B0000000000DE
:1000800023002600290004040404040404040202DA
:100090000202020203030303030301020408102007
:1000A0004080010204081020010204081020000012
:1000B0000008000201000003040700000000000027
:1000C0000000C40511241FBECFEFD8E0DEBFCDBFB6
:1000D00022E0A0EFB1E001C01D92AC3EB207E1F713
:1000E00011E0A0E0B1E0E6E8F0E202C005900D9278
:1000F000A03FB107D9F710E0C2E6D0E004C02197D5
:10010000FE010E94490EC136D107C9F70E940F06B1
:100110000C9441100C940000833081F028F481305D
:1001200099F08230A9F008958730A9F08830C9F09D
:100130008430B1F4809180008F7D03C08091800075
:100140008F7780938000089584B58F7784BD08955C
:1001500084B58F7DFBCF8091B0008F778093B00006
:1001600008958091B0008F7DF9CFCF93DF93E9EBB5
:10017000F0E08491E5EAF0E0D491E1E9F0E0C491A7
:10018000CC23A1F081110E948C00EC2FF0E0EE0F47
:10019000FF1FE458FF4FA591B491EC91ED2381E04E
:1001A00090E009F480E0DF91CF91089580E090E045
:1001B000FACF1F93CF93DF93282F30E0F901E25558
:1001C000FF4F8491F901E656FF4FD491F901EA57A8
:1001D000FF4FC491CC23A9F0162F81110E948C00EF
:1001E000EC2FF0E0EE0FFF1FEE58FF4FA591B491FA
:1001F0008FB7F894EC91111108C0D095DE23DC93F1
:100200008FBFDF91CF911F910895DE2BF8CFCF9351
:10021000DF9390E0FC01E656FF4F24918A579F4FF1
:10022000FC0184918823D1F090E0880F991FFC0194
:10023000E859FF4FA591B491FC01EE58FF4FC591CD
:10024000D491623071F49FB7F8943C91822F8095DD
:1002500083238C93E8812E2B28839FBFDF91CF913E
:1002600008958FB7F894EC912E2B2C938FBFF6CF77
:100270008E3008F08E508770806480937C0080916F
:100280007A00806480937A0080917A0086FDFCCFAA
:10029000809178009091790008952FB7F89460913B
:1002A000290270912A0280912B0290912C022FBF7B
:1002B0000895DC01ED91FC910190F081E02D09940D
:1002C000AF92BF92CF92DF92EF92FF920F931F9364
:1002D000CF93DF936C017B018B01040F151FEB01A2
:1002E0005E01AE18BF08C017D10759F06991D60159
:1002F000ED91FC910190F081E02DC6010995892BCB
:1003000079F7C501DF91CF911F910F91FF90EF9089
:10031000DF90CF90BF90AF900895FC01538D448D36
:10032000252F30E0842F90E0821B930B541710F0A0
:10033000CF96089501970895FC01918D828D9817AD
:1003400061F0A28DAE0FBF2FB11D5D968C91928D85
:100350009F5F9F73928F90E008958FEF9FEF0895B6
:10036000FC01918D828D981731F0828DE80FF11D7F
:10037000858D90E008958FEF9FEF0895FC01918D9A
:10038000228D892F90E0805C9F4F821B91098F7393
:100390009927089583E392E00E94BE0121E0892B12
:1003A00009F420E0822F089580E090E0892B29F065
:1003B0000E94CA0181110C9400000895FC01A48DD3
:1003C000A80FB92FB11DA35ABF4F2C91848D90E077
:1003D00001968F739927848FA689B7892C93A0895A
:1003E000B1898C91837080648C93938D848D9813E4
:1003F00006C00288F389E02D80818F7D8083089577
:10040000EF92FF920F931F93CF93DF93EC0181E064
:10041000888F9B8D8C8D98131AC0E889F98980810B
:1004200085FF15C09FB7F894EE89FF896083E8893E
:10043000F98980818370806480839FBF81E090E030
:10044000DF91CF911F910F91FF90EF900895F62EBD
:100450000B8D10E00F5F1F4F0F731127E02E8C8D57
:100460008E110CC00FB607FCFACFE889F98980819C
:1004700085FFF5CFCE010E94DE01F1CFEB8DEC0FB1
:10048000FD2FF11DE35AFF4FF0829FB7F8940B8FB9
:10049000EA89FB8980818062CFCFCF93DF93EC0123
:1004A000888D8823B9F0AA89BB89E889F9898C915C
:1004B00085FD03C0808186FD0DC00FB607FCF7CF18
:1004C0008C9185FFF2CF808185FFEDCFCE010E9418
:1004D000DE01E9CFDF91CF910895089590E080E0AB
:1004E0000895CF93DF93EC0160E08E810E94D900E4
:1004F00061E08E810E94D90060E08E810E94D90067
:100500008BE891E00197F1F7DF91CF910895CF92B9
:10051000DF92EF92FF920F931F93CF93DF936C01C3
:100520007C0187E0E80EF11CD0E0C0E0062F10E06F
:10053000B8010C2E02C0759567950A94E2F76170B8
:10054000F70181917F010E94D9002196C430D10525
:1005500079F7C601DF91CF911F910F91FF90EF9036
:10056000DF90CF900C947102CF92DF92EF92FF92C6
:100570000F931F93CF93DF93EC01F62E642F8C81A2
:100580000E94D9008D818F3F19F060E00E94D90050
:100590000F2D10E08F8584FF25C06E0187E0C80E07
:1005A000D11CF12CE12CB8010E2C02C07595679579
:1005B0000A94E2F76170F60181916F010E94D900FF
:1005C000FFEFEF1AFF0A88E0E816F10461F7CE01A9
:1005D000DF91CF911F910F91FF90EF90DF90CF901F
:1005E0000C947102B80184E0759567958A95E1F7DE
:1005F000CE010E9487026F2DCE01DF91CF911F9116
:100600000F91FF90EF90DF90CF900C94870240E025
:10061000682F80ED92E00C94B40281E00E94070301
:100620008BE39FE10197F1F70895CF93DF9361305A
:1006300029F09091DF0298609093DF026093E302CB
:100640001092E40290E49093E5028093E602805CCD
:100650008093E70261E08091D4020E9407018091BB
:10066000D5028F3F19F061E00E94070161E080919F
:10067000D6020E940701C0EDD2E09E01205D32400B
:100680008091DF0284FD0BC084E090E02196281762
:10069000390744F461E08E810E940701EECF88E0C3
:1006A00090E0F4CF8BE39DE00197F1F760E080915B
:1006B000D4020E94D90060E08091D6020E94D90045
:1006C0008091D5028F3F19F060E00E94D90080919F
:1006D000DF0284FD34C063E080ED92E00E94870277
:1006E000CBE4D6E4CE010197F1F763E080ED92E030
:1006F0000E9487022197F1F763E080ED92E00E946B
:10070000870283E592E00197F1F762E080ED92E0E5
:100710000E9487028091DF0280620E94070384E0CA
:100720008093E0028CE00E9407030E940D0382E0A8
:100730008093E10286E0DF91CF910C940703806201
:100740000E9407038BE496E40197F1F78091DF02A2
:1007500080620E94070383E592E00197F1F78091A0
:10076000DF0280620E940703D5CF643008F063E0A7
:100770009091E302691710F06FEF690FE62FF0E038
:10078000E053FD4F9489890F80680C94070341E082
:100790000E94B40281E090E00895CF93DF93EC01D2
:1007A00080912D0290912E02009759F020912F02F6
:1007B000309130022C173D0720F081E0DF91CF917E
:1007C0000895BE016F5F7F4F0E94740F009789F0FC
:1007D00090932E0280932D02D0933002C0932F026B
:1007E0002091310230913202232B39F7FC01108223
:1007F000E4CF80E0E3CFFB0101900020E9F73197DF
:10080000AF01461B570BDC01ED91FC910280F38197
:10081000E02D09948F929F92AF92BF92EF92FF9238
:100820000F931F93CF93DF93CDB7DEB7A1970FB68A
:10083000F894DEBF0FBECDBF7C01FA01CB0119A237
:10084000223008F42AE08E010F5D1F4F822E912C7A
:10085000B12CA12CBF01A50194010E94010EF90148
:10086000CA016A300CF5605DD8016E938D01232BAF
:10087000242B252B79F790E080E0109721F0BD0123
:10088000C7010E94FB03A1960FB6F894DEBF0FBE0E
:10089000CDBFDF91CF911F910F91FF90EF90BF904F
:1008A000AF909F908F900895695CDECFCF92DF92DA
:1008B000EF92FF920F931F93CF93DF9377FF1DC0AB
:1008C0006A017B01EC016DE20E9459018C01442711
:1008D0005527BA014C195D096E097F092AE0CE013E
:1008E0000E940A04800F911FDF91CF911F910F91F9
:1008F000FF90EF90DF90CF9008952AE0DF91CF91A5
:100900001F910F91FF90EF90DF90CF900C940A040D
:10091000482F50E070E060E02AE080ED92E00C9417
:100920000A040C94FB03CF93C82F60E080E00E9480
:10093000B50365E271E080ED92E00E949104809140
:1009400017020E94880463E371E080ED92E00E9448
:100950009104CC23A1F080E10E94380124EF31E022
:10096000DC010E94420E20E034E040E050E00E94B2
:10097000230EBA01A90180ED92E00E94560461E0C5
:1009800080E00E94B50360ED71E080ED92E00E948E
:100990009104809116020E94880463E371E080ED67
:1009A00092E00E949104CC23A1F08FE00E943801D4
:1009B00024EF31E0DC010E94420E20E034E040E010
:1009C00050E00E94230EBA01A90180ED92E00E943E
:1009D000560462E080E00E94B50360EE71E080EDB5
:1009E00092E00E94910480911D020E94880463E3BA
:1009F00071E080ED92E00E949104CC2361F040917F
:100A0000190250911A0260911B0270911C0280ED34
:100A100092E00E94560463E080E00E94B50365E323
:100A200071E080ED92E00E9491040E94B50065E4BF
:100A300071E0892B11F06AE471E080ED92E0CF91D2
:100A40000C9491041F920F920FB60F9211242F93C2
:100A50003F938F939F93AF93BF938091290290917F
:100A60002A02A0912B02B0912C023091280223E09F
:100A7000230F2D3758F50196A11DB11D2093280293
:100A80008093290290932A02A0932B02B0932C0208
:100A90008091240290912502A0912602B091270214
:100AA0000196A11DB11D8093240290932502A0936D
:100AB0002602B0932702BF91AF919F918F913F91F2
:100AC0002F910F900FBE0F901F90189526E8230FBF
:100AD0000296A11DB11DD2CF1F920F920FB60F9299
:100AE00011242F933F934F935F936F937F938F9333
:100AF0009F93AF93BF93EF93FF9383E392E00E94A2
:100B0000DE01FF91EF91BF91AF919F918F917F9106
:100B10006F915F914F913F912F910F900FBE0F906A
:100B20001F9018951F920F920FB60F9211242F93BA
:100B30008F939F93EF93FF93E0914302F0914402D0
:100B40008081E0914902F0914A0282FD1BC09081B0
:100B500080914C028F5F8F7320914D02821741F07C
:100B6000E0914C02F0E0ED5CFD4F958F80934C02DC
:100B7000FF91EF919F918F912F910F900FBE0F904A
:100B80001F9018958081F4CFE3E3F2E01382128284
:100B900088EE93E0A0E0B0E084839583A683B783DA
:100BA0008BE091E09183808385EC90E0958784874A
:100BB00084EC90E09787868780EC90E0918B808B27
:100BC00081EC90E0938B828B82EC90E0958B848B10
:100BD00086EC90E0978B868B118E128E138E148E7E
:100BE000E0EDF2E0138212828DE191E09183808347
:100BF00088E084838FEF858389E0868384E0878320
:100C000085E0808786E0818787E082871386148667
:100C100015861686178661E080E10C941503CF9344
:100C2000DF9300D000D000D0CDB7DEB7789484B584
:100C3000826084BD84B5816084BD85B5826085BDD8
:100C400085B5816085BD80916E00816080936E0066
:100C50001092810080918100826080938100809158
:100C60008100816080938100809180008160809309
:100C700080008091B10084608093B1008091B000C9
:100C800081608093B00080917A00846080937A00C4
:100C900080917A00826080937A0080917A008160EE
:100CA00080937A0080917A00806880937A00109215
:100CB000C10062E08BE00E94070162E08EE00E94CA
:100CC000070161E08DE00E94070161E082E00E947F
:100CD000070161E083E00E94070161E08AE00E9471
:100CE000070161E08CE00E94070161E082E10E945F
:100CF000070161E083E10E940701E0914302F09166
:100D0000440282E08083E0913F02F0914002108231
:100D1000E0914102F09142028FEC808310924B02ED
:100D2000E0914702F091480286E08083E09145021D
:100D3000F0914602808180618083E0914502F091CC
:100D40004602808188608083E0914502F0914602EE
:100D5000808180688083E0914502F0914602808125
:100D60008F7D808364E084E10E9415036EE471E06E
:100D700083E392E00E94FB036AE571E083E392E083
:100D80000E94FB0390E080E00E94640D80931702B4
:100D90008F3F19F489E18093170281E090E00E946F
:100DA000640D809316028F3F19F489E18093160237
:100DB00082E090E00E94640D80931D028F3F19F441
:100DC00082E380931D02C12C44E0D42EE12CF12C4F
:100DD00032E0232E312C0E94B5005C018EE00E948F
:100DE000380111E08436910584F012E08A3F9105C4
:100DF00064F013E0803921E092073CF0855F914078
:100E000010E08539910508F414E08091F5018823FC
:100E100009F4BAC0112311F010E002C01092F501DC
:100E20008091FA018823C9F00E944D012091F601BA
:100E30003091F7014091F8015091F901621B730B59
:100E4000840B950B603E7E428105910530F060E099
:100E50008DE00E94D9001092FA01AB2809F0D5C4A8
:100E60008091FB0181112BC010922E0210922D0255
:100E70001092300210922F02109232021092310220
:100E800090E080E00E94CD0320912D0230912E024F
:100E90008111BBC02115310519F0C9010E94EB0E6B
:100EA00010922E0210922D021092320210923102F4
:100EB0001092300210922F0281E08093FB0183E3B5
:100EC00092E00E94BE01181619060CF0EAC083E3F6
:100ED00092E00E949C018A3019F08D3009F0B4C074
:100EE0008091310290913202892B49F380912D0239
:100EF00090912E02009709F492C00E942D0C653645
:100F0000710508F090C0072E000C880B990B6093B8
:100F1000190270931A0280931B0290931C026DE5D4
:100F200071E083E392E00E94910440911902509194
:100F30001A0260911B0270911C0283E392E00E94EE
:100F400056046AE571E083E392E00E94FB0390E0BF
:100F500080E00E94CD0320912D0230912E0281115C
:100F600069C02115310519F0C9010E94EB0E1092DC
:100F70002E0210922D021092320210923102109223
:100F8000300210922F029BCF111103C01092F40176
:100F900047CF8091F401181769F01093F4010E9473
:100FA0004D016093F0017093F1018093F2019093F1
:100FB000F30132CF0E944D012091F0013091F101F7
:100FC0004091F2015091F301621B730B840B950B5E
:100FD000643171058105910508F41ECF01E000938D
:100FE000F501143009F01CCF61E08DE00E94D900BA
:100FF0000093FA010E944D016093F6017093F7018E
:101000008093F8019093F9010BCF10923202109265
:1010100031026CE571E0C9010E943A104DCF60E0E9
:1010200070E0CB016CCF64E671E083E392E00E9454
:10103000FB0387CF10923202109231026CE571E00F
:10104000C9010E943A103BCF282F082E000C330B09
:10105000205331092A30310508F031CF89831A82B3
:10106000A0903102B09032024FEFA41AB40AC50129
:101070000E94CD03882309F422CF20912D023091C4
:101080002E028091310290913202BE016F5F7F4F3C
:10109000820F931F0E943A10B0923202A092310246
:1010A0000ECF80E10E94380180901702912CB12C64
:1010B000A12C24EF31E0DC010E94420EA701960131
:1010C0000E94230ED501C401821B930BA40BB50B08
:1010D0009C01AD01A8E2B0E00E947A0D9B01AC0139
:1010E000253631054105510524F024E630E040E085
:1010F00050E057FF03C020E030E0A901A4E6B0E0D3
:101100000E947A0D4B015C010E944D014090030248
:10111000509004026090050270900602AB01BC0181
:10112000441955096609770940315742610571052F
:1011300070F0D301C201805F984DAF4FBF4F8093D5
:10114000030290930402A0930502B09306020E944A
:101150004D0120910302309104024091050250910B
:101160000602621B730B840B950B681579058A05C3
:101170009B0508F0D8C061E082E00E94D90080E1C0
:101180000E94380124EF31E0DC010E94420EA701E9
:1011900096010E94230E80911702281B31094109F4
:1011A0005109A4E1B0E00E947A0D9B01AC01253603
:1011B00031054105510524F024E630E040E050E0DF
:1011C00057FF03C020E030E0A901A4E6B0E00E9490
:1011D0007A0D4B015C010E944D0140900702509036
:1011E00008026090090270900A024B825C826D8254
:1011F0007E82AB01BC01441955096609770940316B
:1012000057426105710570F0D301C201805F984DAE
:10121000AF4FBF4F8093070290930802A09309023B
:10122000B0930A020E944D012091070230910802FA
:101230004091090250910A02621B730B840B950BBB
:10124000681579058A059B0508F06FC061E083E0A9
:101250000E94D9008FE00E943801DC0190910F02BA
:10126000913009F489C008F462C0923009F4AAC030
:10127000933009F4C1C00E944D01809012029090F9
:101280001302A0901402B0901502AB01BC014819E2
:1012900059096A097B0940325E446105710508F409
:1012A000E1C0D501C401805E914BAF4FBF4F809329
:1012B000120290931302A0931402B093150220918E
:1012C0001D026091190270911A0280911B02909187
:1012D0001C02621B71098109910922E030E040E0A3
:1012E00050E00E94230E2E5C3F4F3093110220935A
:1012F000100280912202909123028130910509F41D
:10130000F2C008F4E0C0029709F495C180E090E0D3
:10131000892B09F460CD0E94CA01882309F458CDB5
:101320000E94000055CD60E027CF60E090CF809014
:101330001602912CB12CA12C24EF31E00E94420E18
:10134000A70196010E94230E281539054A055B0561
:1013500054F461E08CE00E94D90061E08AE00E94D0
:10136000D90081E022C060E08CE00E94D90060E0FA
:101370008AE00E94D9007FCF0E944D0180900B022D
:1013800090900C02A0900D02B0900E02681979099D
:101390008A099B09683873418105910508F46BCF70
:1013A00060E08AE00E94D90082E080930F020E94F0
:1013B0004D0160930B0270930C0280930D02909389
:1013C0000E0259CF0E944D0180900B0290900C02AA
:1013D000A0900D02B0900E02681979098A099B0944
:1013E000603D77408105910508F445CF60E08CE0D1
:1013F0000E94D90083E0D9CF0E944D0180900B025A
:1014000090900C02A0900D02B0900E02681979091C
:101410008A099B09683E73408105910508F42BCF2A
:101420008FE00E94380180901602912CB12CA12CE3
:1014300024EF31E0DC010E94420EA70196010E94D8
:10144000230E281539054A055B050CF482CF60E0B0
:101450008CE00E94D90060E08AE00E94D9001092DE
:101460000F0209CF81E10E943801BC01990F880B5E
:10147000990B0E946B0C2DE032E348EC5DE30E9477
:10148000A60C0E94CB0D9B01E0911002F09111027D
:10149000AB014E1B5F0B4B5F5F4F60E04B30510564
:1014A00020F02E173F074CF461E082E10E94D90042
:1014B00060E083E10E94D9001CCF60E082E10E94DD
:1014C000D90061E0F6CF81E00E949304133009F067
:1014D0001DCFA1E0B0E0B0932302A09322021092AE
:1014E000180281E09AC0809100018823B1F10E9426
:1014F0000D0360E082E00E94B50360E971E080EDD9
:1015000092E00E94910461E082E00E94B50360EAEB
:1015100071E080ED92E00E94910462E082E00E941E
:10152000B5036DEA71E080ED92E00E94910463E002
:1015300082E00E94B50366EB71E080ED92E00E94CC
:1015400091046091180280E00E94B5036EE380ED83
:1015500092E00E94590110920001112309F4D6CEA5
:101560006091180280E00E94B50360E280ED92E095
:101570000E9459011230B1F01330D1F0113039F41A
:1015800080911802882319F081508093180260918D
:10159000180280E00E94B5036EE380ED92E00E94A5
:1015A0005901B4CE80911802833088F78F5FEDCF58
:1015B000809118028130F9F058F0823089F183303F
:1015C00031F710922302109222020E940D039ECE48
:1015D00027E1422E22E0522E5092200240921F021A
:1015E00010921E02809117028093210230922302F2
:1015F0002092220276CF96E1692E92E0792E7092A7
:10160000200260921F0280931E0290911602909316
:10161000210230922302209222028093000176CE92
:101620002DE132E03093200220931F0280931E02AE
:1016300080911D02D9CF80910001882309F498C0C0
:101640000E940D0360E081E10E94B5036BEB71E045
:1016500080ED92E00E94910462E081E10E94B50376
:101660006DEB71E080ED92E00E94910461E080E01A
:101670000E94B50380911E02813009F49DC008F4D8
:1016800094C0823009F49BC061E081E10E94B503FF
:10169000809121020E94880480911E02823009F00C
:1016A00065C062E080E00E94B50360EE71E080ED0D
:1016B00092E00E94910480911D020E94880463E3DD
:1016C00071E080ED92E00E949104409119025091E6
:1016D0001A0260911B0270911C0280ED92E00E9440
:1016E000560463E080E00E94B50366EE71E080ED91
:1016F00092E00E94910420911D0260911902709164
:101700001A0280911B0290911C02621B71098109CF
:10171000910922E030E040E050E00E94230E2E5C70
:101720003F4FA901330F660B770B80ED92E00E94CB
:10173000560463E371E080ED92E00E94910481E140
:101740000E943801BC01990F880B990B0E946B0C09
:101750002DE032E348EC5DE30E94A60C0E94CB0D25
:10176000AB01BC0180ED92E00E9456041092000192
:10177000113041F580912102843608F0C7CD8F5F8A
:101780008093210261E081E10E94B5036CEE71E07B
:1017900080ED92E00E94910461E081E10E94B50336
:1017A000809121020E948804B1CD6FEB71E080ED41
:1017B00092E00E94910468CF6BEC71E0F8CF6BED82
:1017C00071E0F5CF123039F480912102882309F4B9
:1017D0009DCD8150D5CF133009F098CD6091210275
:1017E000E0911F02F0912002608380911E0290E040
:1017F0000E946C0D1092200210921F0241E050E0F6
:1018000050932302409322026CCE60E082E00E945B
:10181000D90060E083E00E94D90060E08AE00E9485
:10182000D90060E08CE00E94D90060E082E10E9473
:10183000D90060E083E10E94D9008091220290915A
:101840002302892B31F010922302109222020E946F
:101850000D0380E00E94930459CD1F93FC0199274A
:101860008827BC01E89411911032E9F3193010F087
:101870001E30C8F31B3251F01D3249F4689406C083
:101880000E94540C610F711D811D911D1191105307
:101890001A30B0F33EF490958095709561957F4F26
:1018A0008F4F9F4F1F910895592F482F372F262F65
:1018B000660F771F881F991F660F771F881F991F54
:1018C000620F731F841F951F660F771F881F991F54
:1018D0000895E89409C097FB3EF490958095709523
:1018E00061957F4F8F4F9F4F9923A9F0F92F96E96C
:1018F000BB279395F695879577956795B795F111E1
:10190000F8CFFAF4BB0F11F460FF1BC06F5F7F4F7D
:101910008F4F9F4F16C0882311F096E911C077238F
:1019200021F09EE8872F762F05C0662371F096E898
:10193000862F70E060E02AF09A95660F771F881F67
:10194000DAF7880F9695879597F908950E94B90C54
:101950000C942A0D0E941C0D38F00E94230D20F0DB
:10196000952311F00C94130D0C94190D11240C9463
:101970005E0D0E943B0D70F3959FC1F3950F50E0F3
:10198000551F629FF001729FBB27F00DB11D639F31
:10199000AA27F00DB11DAA1F649F6627B00DA11DD7
:1019A000661F829F2227B00DA11D621F739FB00D7D
:1019B000A11D621F839FA00D611D221F749F3327ED
:1019C000A00D611D231F849F600D211D822F762F86
:1019D0006A2F11249F5750409AF0F1F088234AF063
:1019E000EE0FFF1FBB1F661F771F881F91505040CF
:1019F000A9F79E3F510580F00C94130D0C945E0DD9
:101A00005F3FE4F3983ED4F3869577956795B79555
:101A1000F795E7959F5FC1F7FE2B880F911D96956F
:101A2000879597F9089597F99F6780E870E060E0DF
:101A300008959FEF80EC089500240A941616170667
:101A400018060906089500240A94121613061406AF
:101A500005060895092E0394000C11F4882352F012
:101A6000BB0F40F4BF2B11F460FF04C06F5F7F4FCA
:101A70008F4F9F4F089557FD9058440F551F59F0B1
:101A80005F3F71F04795880F97FB991F61F09F3F6B
:101A900079F087950895121613061406551FF2CF94
:101AA0004695F1DF08C0161617061806991FF1CFE4
:101AB00086957105610508940895E894BB2766270B
:101AC0007727CB0197F90895F999FECF92BD81BD93
:101AD000F89A992780B50895262FF999FECF1FBA55
:101AE00092BD81BD20BD0FB6F894FA9AF99A0FBE47
:101AF000019608950E94BC0DA59F900DB49F900D76
:101B0000A49F800D911D112408952F923F924F9212
:101B10005F926F927F928F929F92AF92BF92CF927D
:101B2000DF92EF92FF920F931F93CF93DF93CDB786
:101B3000DEB7CA1BDB0B0FB6F894DEBF0FBECDBFFE
:101B400009942A88398848885F846E847D848C84CF
:101B50009B84AA84B984C884DF80EE80FD800C81D8
:101B60001B81AA81B981CE0FD11D0FB6F894DEBFBB
:101B70000FBECDBFED010895A29FB001B39FC0017C
:101B8000A39F700D811D1124911DB29F700D811DA9
:101B90001124911D08950E94D20D6894B1110C94E6
:101BA0005E0D08950E94430D88F09F5798F0B92F5D
:101BB0009927B751B0F0E1F0660F771F881F991F82
:101BC0001AF0BA95C9F714C0B13091F00E945D0DBA
:101BD000B1E008950C945D0D672F782F8827B85FCA
:101BE00039F0B93FCCF3869577956795B395D9F7DA
:101BF0003EF490958095709561957F4F8F4F9F4FE4
:101C00000895A1E21A2EAA1BBB1BFD010DC0AA1F3D
:101C1000BB1FEE1FFF1FA217B307E407F50720F055
:101C2000A21BB30BE40BF50B661F771F881F991FD0
:101C30001A9469F760957095809590959B01AC0119
:101C4000BD01CF010895052E97FB1EF400940E945C
:101C50003A0E57FD07D00E94010E07FC03D04EF448
:101C60000C943A0E50954095309521953F4F4F4F2B
:101C70005F4F089590958095709561957F4F8F4F38
:101C80009F4F08950E94BC0DB7FF0895821B930BD0
:101C90000895EE0FFF1F0590F491E02D09940F9326
:101CA0001F93CF93DF938230910510F482E090E090
:101CB000E091EA02F091EB0230E020E0B0E0A0E039
:101CC000309799F42115310509F44AC0281B390BC6
:101CD00024303105D8F58A819B816115710589F120
:101CE000FB0193838283FE0111C0408151810281F7
:101CF000138148175907E0F04817590799F41097CE
:101D000061F012960C93129713961C933296CF01A2
:101D1000DF91CF911F910F9108950093EA021093E4
:101D2000EB02F4CF2115310551F04217530738F07B
:101D3000A901DB019A01BD01DF01F801C1CFEF016B
:101D4000F9CF9093EB028093EA02CDCFFE01E20F30
:101D5000F31F819391932250310939832883D7CF80
:101D60002091E8023091E902232B41F420910301F4
:101D7000309104013093E9022093E802209101019F
:101D8000309102012115310541F42DB73EB7409144
:101D9000050150910601241B350BE091E802F091FA
:101DA000E902E217F307A0F42E1B3F0B28173907AF
:101DB00078F0AC014E5F5F4F2417350748F04E0FA7
:101DC0005F1F5093E9024093E802819391939FCF64
:101DD000F0E0E0E09CCFCF93DF930097E9F0FC01C7
:101DE000329713821282A091EA02B091EB02ED01C8
:101DF00030E020E01097A1F420813181820F931F01
:101E00002091E8023091E9022817390709F061C0F2
:101E1000F093E902E093E802DF91CF910895EA019F
:101E2000CE17DF07E8F54A815B819E014115510518
:101E3000B1F7E901FB83EA8349915991C40FD51F9A
:101E4000EC17FD0761F4808191810296840F951F44
:101E5000E90199838883828193819B838A83F0E05F
:101E6000E0E012968D919C9113970097B9F52D9112
:101E70003C911197CD010296820F931F2091E802A9
:101E80003091E9022817390739F6309751F5109249
:101E9000EB021092EA02B093E902A093E802BCCFF1
:101EA000D383C28340815181840F951FC817D907FE
:101EB00061F44E5F5F4F88819981480F591F5183AC
:101EC00040838A819B81938382832115310509F0A8
:101ED000B0CFF093EB02E093EA029ECFFD01DC016C
:101EE000C0CF13821282D7CFB0E0A0E0EAE7FFE0D4
:101EF0000C94870D8C01009751F4CB010E944F0E7A
:101F00008C01C801CDB7DEB7E0E10C94A30DFC0154
:101F1000E60FF71F9C0122503109E217F30708F47E
:101F20009DC0D901CD91DC911197C617D70798F0C4
:101F3000C530D10530F3CE0104978617970708F313
:101F4000C61BD70B2297C193D1936D937C93CF017E
:101F50000E94EB0ED6CF5B01AC1ABD0A4C018C0E71
:101F60009D1EA091EA02B091EB02512C412CF12C64
:101F7000E12C109731F58091E8029091E9028815E3
:101F8000990509F05CC04616570608F058C08091C4
:101F9000010190910201009741F48DB79EB74091E5
:101FA000050150910601841B950BE817F90708F00D
:101FB00055C0F093E902E093E802F9017183608370
:101FC000A0CF8D919C91119712966C9012971396B9
:101FD0007C901397A815B90559F56C0142E0C40E21
:101FE000D11CCA14DB0420F1AC014A195B09DA01E7
:101FF0001296159780F06282738251834083D901D3
:102000006D937C93E114F10471F0D7011396FC9366
:10201000EE93129776CF22968C0F9D1FF901918334
:102020008083F301EFCFF093EB02E093EA0269CFF4
:102030004816590608F42C017D01D3019ACFCB0133
:102040000E944F0E7C01009749F0AE01B8010E943A
:102050003110C8010E94EB0E870153CF10E000E061
:1020600050CFFB01DC0102C001900D924150504065
:10207000D8F70895FB01DC0101900D920020E1F7F3
:062080000895F894FFCF63
:10208600010000EC02800000000000000260018DEB
:10209600014D02BE019C01B00100000000C70360B3
:1020A600016E026D0254656D7065726174757265BC
:1020B6003A20002F0043757272656E742053746166
:1020C60074653A2000204F4E20004F464600456E6C
:1020D60074657220434F323A20000D0A00434F3296
:1020E600203D20004572726F723A20434F32206CB9
:1020F6006576656C206D7573742062652062657403
:102106007765656E203020616E64203130302E0098
:102116005365742054656D706572617475726500DF
:102126005365742048756D696469747900434F324C
:10213600204D656E750045786974005E0076005026
:102146007265662054656D703A200050726566208F
:1021560048756D69646974793A2000507265662025
:10216600434F323A20004C49443A200020202000B8
:00000001FF
